{
  "contractName": "Post",
  "abi": [
    {
      "inputs": [],
      "stateMutability": "nonpayable",
      "type": "constructor"
    },
    {
      "anonymous": false,
      "inputs": [
        {
          "indexed": false,
          "internalType": "address",
          "name": "_address",
          "type": "address"
        },
        {
          "indexed": false,
          "internalType": "string",
          "name": "postBody",
          "type": "string"
        },
        {
          "indexed": false,
          "internalType": "uint64",
          "name": "likes",
          "type": "uint64"
        },
        {
          "indexed": false,
          "internalType": "uint64",
          "name": "dislikes",
          "type": "uint64"
        },
        {
          "indexed": false,
          "internalType": "uint256",
          "name": "timestamp",
          "type": "uint256"
        },
        {
          "indexed": false,
          "internalType": "uint256",
          "name": "postId",
          "type": "uint256"
        }
      ],
      "name": "PostAppended",
      "type": "event"
    },
    {
      "anonymous": false,
      "inputs": [
        {
          "indexed": false,
          "internalType": "address",
          "name": "likedBy",
          "type": "address"
        },
        {
          "indexed": false,
          "internalType": "uint256",
          "name": "postId",
          "type": "uint256"
        }
      ],
      "name": "PostDisliked",
      "type": "event"
    },
    {
      "anonymous": false,
      "inputs": [
        {
          "indexed": false,
          "internalType": "address",
          "name": "likedBy",
          "type": "address"
        },
        {
          "indexed": false,
          "internalType": "uint256",
          "name": "postId",
          "type": "uint256"
        }
      ],
      "name": "PostLiked",
      "type": "event"
    },
    {
      "anonymous": false,
      "inputs": [
        {
          "indexed": false,
          "internalType": "bytes32",
          "name": "username",
          "type": "bytes32"
        },
        {
          "indexed": false,
          "internalType": "bytes32",
          "name": "bio",
          "type": "bytes32"
        },
        {
          "indexed": false,
          "internalType": "address[]",
          "name": "following",
          "type": "address[]"
        },
        {
          "indexed": false,
          "internalType": "address[]",
          "name": "followers",
          "type": "address[]"
        }
      ],
      "name": "ProfileAppended",
      "type": "event"
    },
    {
      "inputs": [
        {
          "internalType": "uint256",
          "name": "",
          "type": "uint256"
        }
      ],
      "name": "posts",
      "outputs": [
        {
          "internalType": "address",
          "name": "_address",
          "type": "address"
        },
        {
          "internalType": "string",
          "name": "postBody",
          "type": "string"
        },
        {
          "internalType": "uint64",
          "name": "likes",
          "type": "uint64"
        },
        {
          "internalType": "uint64",
          "name": "dislikes",
          "type": "uint64"
        },
        {
          "internalType": "uint256",
          "name": "timestamp",
          "type": "uint256"
        },
        {
          "internalType": "uint256",
          "name": "postId",
          "type": "uint256"
        }
      ],
      "stateMutability": "view",
      "type": "function",
      "constant": true
    },
    {
      "inputs": [
        {
          "internalType": "address",
          "name": "",
          "type": "address"
        }
      ],
      "name": "profiles",
      "outputs": [
        {
          "internalType": "bytes32",
          "name": "username",
          "type": "bytes32"
        },
        {
          "internalType": "bytes32",
          "name": "bio",
          "type": "bytes32"
        }
      ],
      "stateMutability": "view",
      "type": "function",
      "constant": true
    },
    {
      "inputs": [
        {
          "internalType": "string",
          "name": "postBody",
          "type": "string"
        }
      ],
      "name": "appendPost",
      "outputs": [],
      "stateMutability": "nonpayable",
      "type": "function"
    },
    {
      "inputs": [
        {
          "internalType": "bytes32",
          "name": "username",
          "type": "bytes32"
        },
        {
          "internalType": "bytes32",
          "name": "bio",
          "type": "bytes32"
        }
      ],
      "name": "addProfile",
      "outputs": [],
      "stateMutability": "nonpayable",
      "type": "function"
    },
    {
      "inputs": [
        {
          "internalType": "uint64",
          "name": "id",
          "type": "uint64"
        }
      ],
      "name": "likePost",
      "outputs": [],
      "stateMutability": "nonpayable",
      "type": "function"
    },
    {
      "inputs": [
        {
          "internalType": "uint64",
          "name": "id",
          "type": "uint64"
        }
      ],
      "name": "dislikePost",
      "outputs": [],
      "stateMutability": "nonpayable",
      "type": "function"
    }
  ],
  "bytecode": "0x608060405234801561001057600080fd5b5060008081905550610b5c806100276000396000f3fe608060405234801561001057600080fd5b50600436106100625760003560e01c80630b1e7f83146100675780633d2926931461015b5780634c11804314610193578063571a25901461024e578063bbe1562714610286578063c8eef6cc146102e5575b600080fd5b6100936004803603602081101561007d57600080fd5b810190808035906020019092919050505061031d565b604051808773ffffffffffffffffffffffffffffffffffffffff168152602001806020018667ffffffffffffffff1681526020018567ffffffffffffffff168152602001848152602001838152602001828103825287818151815260200191508051906020019080838360005b8381101561011b578082015181840152602081019050610100565b50505050905090810190601f1680156101485780820380516001836020036101000a031916815260200191505b5097505050505050505060405180910390f35b6101916004803603602081101561017157600080fd5b81019080803567ffffffffffffffff169060200190929190505050610439565b005b61024c600480360360208110156101a957600080fd5b81019080803590602001906401000000008111156101c657600080fd5b8201836020820111156101d857600080fd5b803590602001918460018302840111640100000000831117156101fa57600080fd5b91908080601f016020809104026020016040519081016040528093929190818152602001838380828437600081840152601f19601f820116905080830192505050505050509192919290505050610500565b005b6102846004803603602081101561026457600080fd5b81019080803567ffffffffffffffff16906020019092919050505061074d565b005b6102c86004803603602081101561029c57600080fd5b81019080803573ffffffffffffffffffffffffffffffffffffffff169060200190929190505050610815565b604051808381526020018281526020019250505060405180910390f35b61031b600480360360408110156102fb57600080fd5b810190808035906020019092919080359060200190929190505050610839565b005b60016020528060005260406000206000915090508060000160009054906101000a900473ffffffffffffffffffffffffffffffffffffffff1690806001018054600181600116156101000203166002900480601f0160208091040260200160405190810160405280929190818152602001828054600181600116156101000203166002900480156103ef5780601f106103c4576101008083540402835291602001916103ef565b820191906000526020600020905b8154815290600101906020018083116103d257829003601f168201915b5050505050908060020160009054906101000a900467ffffffffffffffff16908060020160089054906101000a900467ffffffffffffffff16908060030154908060040154905086565b600160008267ffffffffffffffff168152602001908152602001600020600201600081819054906101000a900467ffffffffffffffff168092919060010191906101000a81548167ffffffffffffffff021916908367ffffffffffffffff160217905550507f62500381f39eb6f48b6e6f104021ceeaca9e5354918dc17b4a15bf87c5f5d28b3382604051808373ffffffffffffffffffffffffffffffffffffffff1681526020018267ffffffffffffffff1681526020019250505060405180910390a150565b6040518060c001604052803373ffffffffffffffffffffffffffffffffffffffff168152602001828152602001600067ffffffffffffffff168152602001600067ffffffffffffffff168152602001428152602001600054815250600160008054815260200190815260200160002060008201518160000160006101000a81548173ffffffffffffffffffffffffffffffffffffffff021916908373ffffffffffffffffffffffffffffffffffffffff16021790555060208201518160010190805190602001906105d29291906109c4565b5060408201518160020160006101000a81548167ffffffffffffffff021916908367ffffffffffffffff16021790555060608201518160020160086101000a81548167ffffffffffffffff021916908367ffffffffffffffff1602179055506080820151816003015560a082015181600401559050507f96df6e3103cf959eb8d3a3fe429c69202b852311cbbcb7cdabab9f4c95a48ed1338260008042600054604051808773ffffffffffffffffffffffffffffffffffffffff168152602001806020018667ffffffffffffffff1681526020018567ffffffffffffffff168152602001848152602001838152602001828103825287818151815260200191508051906020019080838360005b838110156106fa5780820151818401526020810190506106df565b50505050905090810190601f1680156107275780820380516001836020036101000a031916815260200191505b5097505050505050505060405180910390a1600080815480929190600101919050555050565b600160008267ffffffffffffffff168152602001908152602001600020600201600881819054906101000a900467ffffffffffffffff16809291906001900391906101000a81548167ffffffffffffffff021916908367ffffffffffffffff160217905550507fe89d7435c9c48e14e0c973df9def5b6052828a8a5639059a73818d45ad52eeb53382604051808373ffffffffffffffffffffffffffffffffffffffff1681526020018267ffffffffffffffff1681526020019250505060405180910390a150565b60026020528060005260406000206000915090508060000154908060010154905082565b606080604051806080016040528085815260200184815260200183815260200182815250600260003373ffffffffffffffffffffffffffffffffffffffff1673ffffffffffffffffffffffffffffffffffffffff168152602001908152602001600020600082015181600001556020820151816001015560408201518160020190805190602001906108cc929190610a44565b5060608201518160030190805190602001906108e9929190610a44565b509050507f8a440b1ac2f27f69949262304d1c19cf8ca9be7a3d389c2e539e9df94c45ee6784848484604051808581526020018481526020018060200180602001838103835285818151815260200191508051906020019060200280838360005b8381101561096557808201518184015260208101905061094a565b50505050905001838103825284818151815260200191508051906020019060200280838360005b838110156109a757808201518184015260208101905061098c565b50505050905001965050505050505060405180910390a150505050565b828054600181600116156101000203166002900490600052602060002090601f016020900481019282601f10610a0557805160ff1916838001178555610a33565b82800160010185558215610a33579182015b82811115610a32578251825591602001919060010190610a17565b5b509050610a409190610ace565b5090565b828054828255906000526020600020908101928215610abd579160200282015b82811115610abc5782518260006101000a81548173ffffffffffffffffffffffffffffffffffffffff021916908373ffffffffffffffffffffffffffffffffffffffff16021790555091602001919060010190610a64565b5b509050610aca9190610aeb565b5090565b5b80821115610ae7576000816000905550600101610acf565b5090565b5b80821115610b2257600081816101000a81549073ffffffffffffffffffffffffffffffffffffffff021916905550600101610aec565b509056fea26469706673582212208e4f2c06ecf74e1a64e1a4a3b302cda19155ff15f8393e7575c802e6e81bf43664736f6c63430007010033",
  "immutableReferences": {},
  "source": "// SPDX-License-Identifier: GPL-3.0\n\npragma solidity >=0.7.0 <0.9.0;\n\ncontract Post {\n    uint256 numPost;\n    \n    constructor() {\n        numPost = 0;    \n    }\n    \n    mapping (uint256 => PostObject) public posts;\n    mapping (address => Profile) public profiles;\n    \n    struct PostObject {\n        address _address;\n        string postBody;\n        uint64 likes;\n        uint64 dislikes;\n        uint256 timestamp;\n        uint256 postId;\n    }\n    \n    event PostAppended(\n        address _address,\n        string postBody,\n        uint64 likes,\n        uint64 dislikes,\n        uint256 timestamp,\n        uint256 postId\n    );\n    \n    \n    struct Profile {\n        bytes32 username;\n        bytes32 bio;\n        address[] following;\n        address[] followers;\n    }\n    \n    event ProfileAppended(\n        bytes32 username,\n        bytes32 bio,\n        address[] following,\n        address[] followers\n    );\n    \n    event PostLiked(\n        address likedBy,\n        uint256 postId\n    );\n    \n    event PostDisliked(\n        address likedBy,\n        uint256 postId\n    );\n    \n    function appendPost(string memory postBody) public {\n        posts[numPost] = PostObject(\n                            address(msg.sender), \n                            postBody,\n                            uint64(0),\n                            uint64(0),\n                            block.timestamp,\n                            numPost\n                        );\n                        \n        emit PostAppended(\n                address(msg.sender), \n                postBody,\n                uint64(0),\n                uint64(0),\n                block.timestamp,\n                numPost\n        );\n        numPost++;\n    }\n    \n    function addProfile(bytes32 username, bytes32 bio) public {\n        address[] memory following;\n        address[] memory followers;\n        profiles[msg.sender] = Profile(username, bio, following, followers);\n        emit ProfileAppended(username, bio, following, followers);\n    }\n    \n    function likePost(uint64 id) public {\n        posts[id].likes++;\n        emit PostLiked(address(msg.sender), id);\n    }\n    \n    function dislikePost(uint64 id) public {\n        posts[id].dislikes--;\n        emit PostDisliked(address(msg.sender), id);\n    }\n}\n",
  "sourcePath": "/Users/noahbrooks/github/dapp-blog/contracts/Post.sol",
  "compiler": {
    "name": "solc",
    "version": "0.7.1+commit.f4a555be.Emscripten.clang"
  },
  "schemaVersion": "3.4.2",
  "updatedAt": "2021-08-12T01:11:53.952Z",
  "networkType": "ethereum",
  "devdoc": {
    "kind": "dev",
    "methods": {},
    "version": 1
  },
  "userdoc": {
    "kind": "user",
    "methods": {},
    "version": 1
  }
}